:100000000C9462000C948A000C948A000C948A0070
:100010000C948A000C948A000C948A000C948A0038
:100020000C948A000C948A000C948A000C948A0028
:100030000C948A000C948A000C948A000C948A0018
:100040000C94AD020C948A000C947B020C94550223
:100050000C948A000C948A000C948A000C948A00F8
:100060000C948A000C948A000000000024002700F1
:100070002A000000000023002600290000000000E4
:10008000250028002B0004040404040404040202D4
:100090000202020203030303030301020408102007
:1000A0004080010204081020010204081020000012
:1000B0000008000201000003040700000000000027
:1000C0000000E80311241FBECFEFD8E0DEBFCDBF94
:1000D00011E0A0E0B1E0EAE3F8E002C005900D9283
:1000E000AA32B107D9F721E0AAE2B1E001C01D921E
:1000F000A03DB207E1F710E0C2E6D0E004C02197CE
:10010000FE010E941504C136D107C9F70E94F7020B
:100110000C941B040C940000AF92BF92CF92DF921C
:10012000EF92FF920F931F93CF93DF936C017B01AC
:100130008B01040F151FEB015E01AE18BF08C0173D
:10014000D10759F06991D601ED91FC910190F081B0
:10015000E02DC6010995892B79F7C501DF91CF9173
:100160001F910F91FF90EF90DF90CF90BF90AF90D5
:100170000895FC01538D448D252F30E0842F90E0AD
:10018000821B930B541710F0CF9608950197089592
:10019000FC01918D828D981761F0A28DAE0FBF2F5B
:1001A000B11D5D968C91928D9F5F9F73928F90E0B1
:1001B00008958FEF9FEF0895FC01918D828D981720
:1001C00031F0828DE80FF11D858D90E008958FEF5D
:1001D0009FEF0895FC01918D228D892F90E0805C26
:1001E0009F4F821B91098F739927089583E391E0B4
:1001F0000E94EA0021E0892B09F420E0822F089573
:1002000080E090E0892B29F00E94F60081110C9487
:1002100000000895FC01A48DA80FB92FB11DA35AA9
:10022000BF4F2C91848D90E001968F739927848F16
:10023000A689B7892C93A089B1898C918370806439
:100240008C93938D848D981306C00288F389E02DDA
:1002500080818F7D80830895EF92FF920F931F938B
:10026000CF93DF93EC0181E0888F9B8D8C8D981369
:100270001AC0E889F989808185FF15C09FB7F89475
:10028000EE89FF896083E889F989808183708064C1
:1002900080839FBF81E090E0DF91CF911F910F910C
:1002A000FF90EF900895F62E0B8D10E00F5F1F4F1B
:1002B0000F731127E02E8C8D8E110CC00FB607FC2A
:1002C000FACFE889F989808185FFF5CFCE010E94B8
:1002D0000A01F1CFEB8DEC0FFD2FF11DE35AFF4F1B
:1002E000F0829FB7F8940B8FEA89FB898081806246
:1002F000CFCFCF93DF93EC01888D8823B9F0AA8903
:10030000BB89E889F9898C9185FD03C0808186FDD0
:100310000DC00FB607FCF7CF8C9185FFF2CF80811F
:1003200085FFEDCFCE010E940A01E9CFDF91CF9189
:100330000895833081F028F4813099F08230A9F05B
:1003400008958730A9F08830C9F08430B1F48091E5
:1003500080008F7D03C0809180008F778093800024
:10036000089584B58F7784BD089584B58F7DFBCFC4
:100370008091B0008F778093B00008958091B00095
:100380008F7DF9CF1F93CF93DF93E6EBF0E094914D
:10039000E2EAF0E0D491EEE8F0E0C491CC23B9F0C9
:1003A000182F992319F0892F0E949901EC2FF0E062
:1003B000EE0FFF1FE458FF4FA591B4918FB7F8944B
:1003C000EC91111108C0D095DE23DC938FBFDF9133
:1003D000CF911F910895DE2BF8CF3FB7F89480910D
:1003E0002F0190913001A0913101B091320126B5D9
:1003F000A89B05C02F3F19F00196A11DB11D3FBF5D
:10040000BA2FA92F982F8827BC01CD01620F711D2B
:10041000811D911D42E0660F771F881F991F4A9525
:10042000D1F708958F929F92AF92BF92CF92DF92B1
:10043000EF92FF920E94ED014B015C0184EFC82E08
:10044000DD24D394E12CF12C0E94ED016819790987
:100450008A099B09683E734081059105A8F321E054
:10046000C21AD108E108F10888EE880E83E0981ED0
:10047000A11CB11CC114D104E104F10429F7FF90BF
:10048000EF90DF90CF90BF90AF909F908F900895A6
:10049000FC0101900020E9F73197AF01481B590B8F
:1004A000BC0183E391E00C948C001F920F920FB675
:1004B0000F9211242F933F934F935F936F937F93EA
:1004C0008F939F93AF93BF93EF93FF9383E391E059
:1004D0000E940A01FF91EF91BF91AF919F918F917F
:1004E0007F916F915F914F913F912F910F900FBE30
:1004F0000F901F9018951F920F920FB60F92112414
:100500002F938F939F93EF93FF93E0914301F0918B
:1005100044018081E0914901F0914A0182FD1BC0B4
:10052000908180914C018F5F8F7320914D018217D4
:1005300041F0E0914C01F0E0ED5CFE4F958F80932F
:100540004C01FF91EF919F918F912F910F900FBED2
:100550000F901F9018958081F4CF1F920F920FB6C5
:100560000F9211242F933F938F939F93AF93BF9339
:1005700080912B0190912C01A0912D01B0912E0121
:1005800030912A0123E0230F2D3758F50196A11D44
:10059000B11D20932A0180932B0190932C01A093ED
:1005A0002D01B0932E0180912F0190913001A091E7
:1005B0003101B09132010196A11DB11D80932F012F
:1005C00090933001A0933101B0933201BF91AF916C
:1005D0009F918F913F912F910F900FBE0F901F9081
:1005E000189526E8230F0296A11DB11DD2CF78944D
:1005F00084B5826084BD84B5816084BD85B5826028
:1006000085BD85B5816085BD80916E0081608093D8
:100610006E00109281008091810082608093810041
:100620008091810081608093810080918000816051
:10063000809380008091B10084608093B1008091AC
:10064000B00081608093B00080917A0084608093D4
:100650007A0080917A00826080937A0080917A009B
:10066000816080937A0080917A00806880937A001C
:100670001092C100CCE9D0E0FE01249108E810E01E
:10068000F80184918823C9F090E0880F991FFC013C
:10069000E859FF4FA591B491FC01E458FF4F4591F3
:1006A00054913FB7F8949C91822F809598239C9306
:1006B000FA019081892380833FBFE2EAF0E0249130
:1006C000EEE8F0E08491882399F090E0880F991F7C
:1006D000FC01E859FF4FA591B491FC01E458FF4F8C
:1006E000859194918FB7F894EC91E22BEC938FBFA6
:1006F000E0914301F091440182E08083E0913F0169
:10070000F09140011082E0914101F09142018FECA3
:10071000808310924B01E0914701F091480186E0FF
:100720008083E0914501F091460180818061808362
:10073000E0914501F0914601808188608083E091DD
:100740004501F0914601808180688083E0914501F8
:10075000F091460180818F7D808390EBE92E90E0BF
:10076000F92E20E0C22E20E0D22EF7018491FE0166
:10077000A490F801B490BB2029F181110E94990145
:10078000EB2DF0E0EE0FFF1FEE58FF4FA591B49157
:100790008C91A822B9F081E00E94C20182E191E02F
:1007A0000E9448028CE191E00E9448020E941202DD
:1007B000C114D104D1F20E94F6008823B1F20E9444
:1007C0000000D3CF80E00E94C2018FE191E0E8CF2A
:1007D000E3E3F1E01382128288EE93E0A0E0B0E060
:1007E00084839583A683B78384E091E0918380839B
:1007F00085EC90E09587848784EC90E097878687E6
:1008000080EC90E0918B808B81EC90E0938B828BDD
:1008100082EC90E0958B848B86EC90E0978B868BB6
:10082000118E128E138E148E0895EE0FFF1F0590F9
:0A083000F491E02D0994F894FFCF35
:10083A00000000002C018C00B9007901EA00C80010
:10084A00DC006C6564206973206F6E000D0A006C11
:0A085A006564206973206F66660074
:00000001FF
